{
  "_format": "hh-sol-artifact-1",
  "contractName": "RentalManager",
  "sourceName": "contracts/implementations/RentalManager.sol",
  "abi": [
    {
      "inputs": [
        {
          "internalType": "address",
          "name": "_paymentToken",
          "type": "address"
        },
        {
          "internalType": "address",
          "name": "_catalogue",
          "type": "address"
        }
      ],
      "stateMutability": "nonpayable",
      "type": "constructor"
    },
    {
      "anonymous": false,
      "inputs": [
        {
          "indexed": false,
          "internalType": "uint256",
          "name": "id",
          "type": "uint256"
        }
      ],
      "name": "RentalAccepted",
      "type": "event"
    },
    {
      "anonymous": false,
      "inputs": [
        {
          "indexed": false,
          "internalType": "uint256",
          "name": "id",
          "type": "uint256"
        },
        {
          "indexed": false,
          "internalType": "uint256",
          "name": "requestId",
          "type": "uint256"
        },
        {
          "indexed": false,
          "internalType": "address",
          "name": "loaner",
          "type": "address"
        },
        {
          "indexed": false,
          "internalType": "uint256",
          "name": "quantity",
          "type": "uint256"
        },
        {
          "indexed": false,
          "internalType": "uint256",
          "name": "bond",
          "type": "uint256"
        },
        {
          "indexed": false,
          "internalType": "uint256",
          "name": "fee",
          "type": "uint256"
        }
      ],
      "name": "RentalCreated",
      "type": "event"
    },
    {
      "anonymous": false,
      "inputs": [
        {
          "indexed": false,
          "internalType": "uint256",
          "name": "id",
          "type": "uint256"
        }
      ],
      "name": "RentalReturned",
      "type": "event"
    },
    {
      "anonymous": false,
      "inputs": [
        {
          "indexed": false,
          "internalType": "uint256",
          "name": "id",
          "type": "uint256"
        },
        {
          "indexed": false,
          "internalType": "address",
          "name": "renter",
          "type": "address"
        },
        {
          "indexed": false,
          "internalType": "uint256",
          "name": "ISBN",
          "type": "uint256"
        },
        {
          "indexed": false,
          "internalType": "uint256",
          "name": "quantity",
          "type": "uint256"
        }
      ],
      "name": "RequestCreated",
      "type": "event"
    },
    {
      "inputs": [
        {
          "internalType": "uint256",
          "name": "_rentalId",
          "type": "uint256"
        }
      ],
      "name": "acceptOffer",
      "outputs": [],
      "stateMutability": "nonpayable",
      "type": "function"
    },
    {
      "inputs": [],
      "name": "catalogue",
      "outputs": [
        {
          "internalType": "address",
          "name": "",
          "type": "address"
        }
      ],
      "stateMutability": "view",
      "type": "function"
    },
    {
      "inputs": [
        {
          "internalType": "uint256",
          "name": "_ISBN",
          "type": "uint256"
        },
        {
          "internalType": "uint256",
          "name": "_amount",
          "type": "uint256"
        }
      ],
      "name": "createRequest",
      "outputs": [],
      "stateMutability": "nonpayable",
      "type": "function"
    },
    {
      "inputs": [
        {
          "internalType": "uint256",
          "name": "_requestId",
          "type": "uint256"
        },
        {
          "internalType": "uint256",
          "name": "_quantity",
          "type": "uint256"
        },
        {
          "internalType": "uint256",
          "name": "_bond",
          "type": "uint256"
        },
        {
          "internalType": "uint256",
          "name": "_fee",
          "type": "uint256"
        }
      ],
      "name": "offerRental",
      "outputs": [],
      "stateMutability": "nonpayable",
      "type": "function"
    },
    {
      "inputs": [],
      "name": "paymentToken",
      "outputs": [
        {
          "internalType": "address",
          "name": "",
          "type": "address"
        }
      ],
      "stateMutability": "view",
      "type": "function"
    },
    {
      "inputs": [],
      "name": "rentalCount",
      "outputs": [
        {
          "internalType": "uint256",
          "name": "",
          "type": "uint256"
        }
      ],
      "stateMutability": "view",
      "type": "function"
    },
    {
      "inputs": [
        {
          "internalType": "uint256",
          "name": "_rentalId",
          "type": "uint256"
        }
      ],
      "name": "rentalReturned",
      "outputs": [],
      "stateMutability": "nonpayable",
      "type": "function"
    },
    {
      "inputs": [
        {
          "internalType": "uint256",
          "name": "",
          "type": "uint256"
        }
      ],
      "name": "rentals",
      "outputs": [
        {
          "internalType": "uint256",
          "name": "requestId",
          "type": "uint256"
        },
        {
          "internalType": "address",
          "name": "loaner",
          "type": "address"
        },
        {
          "internalType": "uint256",
          "name": "quantity",
          "type": "uint256"
        },
        {
          "internalType": "uint256",
          "name": "bond",
          "type": "uint256"
        },
        {
          "internalType": "uint256",
          "name": "fee",
          "type": "uint256"
        },
        {
          "internalType": "enum RentalManager.RentalStatus",
          "name": "status",
          "type": "uint8"
        }
      ],
      "stateMutability": "view",
      "type": "function"
    },
    {
      "inputs": [],
      "name": "requestCount",
      "outputs": [
        {
          "internalType": "uint256",
          "name": "",
          "type": "uint256"
        }
      ],
      "stateMutability": "view",
      "type": "function"
    },
    {
      "inputs": [
        {
          "internalType": "uint256",
          "name": "",
          "type": "uint256"
        }
      ],
      "name": "requests",
      "outputs": [
        {
          "internalType": "address",
          "name": "renter",
          "type": "address"
        },
        {
          "internalType": "uint256",
          "name": "ISBN",
          "type": "uint256"
        },
        {
          "internalType": "uint256",
          "name": "quantity",
          "type": "uint256"
        }
      ],
      "stateMutability": "view",
      "type": "function"
    }
  ],
  "bytecode": "0x60806040523480156200001157600080fd5b5060405162001b5538038062001b5583398181016040528101906200003791906200012a565b816000806101000a81548173ffffffffffffffffffffffffffffffffffffffff021916908373ffffffffffffffffffffffffffffffffffffffff16021790555080600160006101000a81548173ffffffffffffffffffffffffffffffffffffffff021916908373ffffffffffffffffffffffffffffffffffffffff160217905550505062000171565b600080fd5b600073ffffffffffffffffffffffffffffffffffffffff82169050919050565b6000620000f282620000c5565b9050919050565b6200010481620000e5565b81146200011057600080fd5b50565b6000815190506200012481620000f9565b92915050565b60008060408385031215620001445762000143620000c0565b5b6000620001548582860162000113565b9250506020620001678582860162000113565b9150509250929050565b6119d480620001816000396000f3fe608060405234801561001057600080fd5b506004361061009e5760003560e01c806363c6ded31161006657806363c6ded31461013757806372f044701461015357806381d12c581461016f578063af94a1d1146101a1578063c815729d146101d65761009e565b80630a294ab6146100a357806324e4013a146100c15780633013ce29146100df578063552c0555146100fd5780635badbe4c14610119575b600080fd5b6100ab6101f2565b6040516100b89190610ffa565b60405180910390f35b6100c96101f8565b6040516100d69190611056565b60405180910390f35b6100e761021e565b6040516100f49190611056565b60405180910390f35b610117600480360381019061011291906110a2565b610242565b005b610121610550565b60405161012e9190610ffa565b60405180910390f35b610151600480360381019061014c91906110cf565b610556565b005b61016d6004803603810190610168919061110f565b610655565b005b610189600480360381019061018491906110a2565b610986565b60405161019893929190611176565b60405180910390f35b6101bb60048036038101906101b691906110a2565b6109d0565b6040516101cd96959493929190611224565b60405180910390f35b6101f060048036038101906101eb91906110a2565b610a39565b005b60055481565b600160009054906101000a900473ffffffffffffffffffffffffffffffffffffffff1681565b60008054906101000a900473ffffffffffffffffffffffffffffffffffffffff1681565b60008061024e83610ca2565b9150915061025b81610e62565b6001600381111561026f5761026e6111ad565b5b8160a001516003811115610286576102856111ad565b5b146102c6576040517f08c379a00000000000000000000000000000000000000000000000000000000081526004016102bd90611308565b60405180910390fd5b60036004600085815260200190815260200160002060050160006101000a81548160ff02191690836003811115610300576102ff6111ad565b5b021790555060008054906101000a900473ffffffffffffffffffffffffffffffffffffffff1673ffffffffffffffffffffffffffffffffffffffff1663a9059cbb836000015183606001516040518363ffffffff1660e01b8152600401610368929190611328565b602060405180830381600087803b15801561038257600080fd5b505af1158015610396573d6000803e3d6000fd5b505050506040513d601f19601f820116820180604052508101906103ba9190611389565b5060008054906101000a900473ffffffffffffffffffffffffffffffffffffffff1673ffffffffffffffffffffffffffffffffffffffff1663a9059cbb826020015183608001516040518363ffffffff1660e01b815260040161041e929190611328565b602060405180830381600087803b15801561043857600080fd5b505af115801561044c573d6000803e3d6000fd5b505050506040513d601f19601f820116820180604052508101906104709190611389565b50600160009054906101000a900473ffffffffffffffffffffffffffffffffffffffff1673ffffffffffffffffffffffffffffffffffffffff1663f242432a83600001518360200151856020015185604001516040518563ffffffff1660e01b81526004016104e294939291906113ed565b600060405180830381600087803b1580156104fc57600080fd5b505af1158015610510573d6000803e3d6000fd5b505050507f3f1df778e639056ffcd016bb8157e7b2692cd2ca80b095190cc13908548e67a7836040516105439190610ffa565b60405180910390a1505050565b60035481565b60006003600081548092919061056b90611474565b91905055905060405180606001604052803373ffffffffffffffffffffffffffffffffffffffff168152602001848152602001838152506002600083815260200190815260200160002060008201518160000160006101000a81548173ffffffffffffffffffffffffffffffffffffffff021916908373ffffffffffffffffffffffffffffffffffffffff16021790555060208201518160010155604082015181600201559050507f41612386090d3716f01a2fa2e0e5b436c89d4479f1bd27e2644fe2ebad825cfe8133858560405161064894939291906114bd565b60405180910390a1505050565b6003548410610699576040517f08c379a000000000000000000000000000000000000000000000000000000000815260040161069090611574565b60405180910390fd5b6000600260008681526020019081526020016000206040518060600160405290816000820160009054906101000a900473ffffffffffffffffffffffffffffffffffffffff1673ffffffffffffffffffffffffffffffffffffffff1673ffffffffffffffffffffffffffffffffffffffff16815260200160018201548152602001600282015481525050905083600160009054906101000a900473ffffffffffffffffffffffffffffffffffffffff1673ffffffffffffffffffffffffffffffffffffffff1662fdd58e3384602001516040518363ffffffff1660e01b8152600401610786929190611328565b60206040518083038186803b15801561079e57600080fd5b505afa1580156107b2573d6000803e3d6000fd5b505050506040513d601f19601f820116820180604052508101906107d691906115a9565b1015610817576040517f08c379a000000000000000000000000000000000000000000000000000000000815260040161080e90611648565b60405180910390fd5b60006005600081548092919061082c90611474565b9190505590506040518060c001604052808781526020013373ffffffffffffffffffffffffffffffffffffffff16815260200186815260200185815260200184815260200160006003811115610885576108846111ad565b5b815250600460008381526020019081526020016000206000820151816000015560208201518160010160006101000a81548173ffffffffffffffffffffffffffffffffffffffff021916908373ffffffffffffffffffffffffffffffffffffffff16021790555060408201518160020155606082015181600301556080820151816004015560a08201518160050160006101000a81548160ff02191690836003811115610935576109346111ad565b5b02179055509050507fa3a156a6833fd6e69757347f5cfc2540ba6cb63d26af4ac5de269c8ac81c825581873388888860405161097696959493929190611668565b60405180910390a1505050505050565b60026020528060005260406000206000915090508060000160009054906101000a900473ffffffffffffffffffffffffffffffffffffffff16908060010154908060020154905083565b60046020528060005260406000206000915090508060000154908060010160009054906101000a900473ffffffffffffffffffffffffffffffffffffffff16908060020154908060030154908060040154908060050160009054906101000a900460ff16905086565b600080610a4583610ca2565b91509150610a5282610ed7565b60006003811115610a6657610a656111ad565b5b8160a001516003811115610a7d57610a7c6111ad565b5b14610abd576040517f08c379a0000000000000000000000000000000000000000000000000000000008152600401610ab49061173b565b60405180910390fd5b60016004600085815260200190815260200160002060050160006101000a81548160ff02191690836003811115610af757610af66111ad565b5b021790555060008054906101000a900473ffffffffffffffffffffffffffffffffffffffff1673ffffffffffffffffffffffffffffffffffffffff166323b872dd83600001513084606001518560800151610b52919061175b565b6040518463ffffffff1660e01b8152600401610b70939291906117b1565b602060405180830381600087803b158015610b8a57600080fd5b505af1158015610b9e573d6000803e3d6000fd5b505050506040513d601f19601f82011682018060405250810190610bc29190611389565b50600160009054906101000a900473ffffffffffffffffffffffffffffffffffffffff1673ffffffffffffffffffffffffffffffffffffffff1663f242432a82602001518460000151856020015185604001516040518563ffffffff1660e01b8152600401610c3494939291906113ed565b600060405180830381600087803b158015610c4e57600080fd5b505af1158015610c62573d6000803e3d6000fd5b505050507fbb054fc27ca92df9daf234d8d116c57ba206cacd56e383ad6b38f107a1d7e30a83604051610c959190610ffa565b60405180910390a1505050565b610caa610f4c565b610cb2610f83565b6005548310610cf6576040517f08c379a0000000000000000000000000000000000000000000000000000000008152600401610ced9061185a565b60405180910390fd5b600460008481526020019081526020016000206040518060c0016040529081600082015481526020016001820160009054906101000a900473ffffffffffffffffffffffffffffffffffffffff1673ffffffffffffffffffffffffffffffffffffffff1673ffffffffffffffffffffffffffffffffffffffff1681526020016002820154815260200160038201548152602001600482015481526020016005820160009054906101000a900460ff166003811115610db757610db66111ad565b5b6003811115610dc957610dc86111ad565b5b81525050905060026000826000015181526020019081526020016000206040518060600160405290816000820160009054906101000a900473ffffffffffffffffffffffffffffffffffffffff1673ffffffffffffffffffffffffffffffffffffffff1673ffffffffffffffffffffffffffffffffffffffff168152602001600182015481526020016002820154815250509150915091565b3373ffffffffffffffffffffffffffffffffffffffff16816020015173ffffffffffffffffffffffffffffffffffffffff1614610ed4576040517f08c379a0000000000000000000000000000000000000000000000000000000008152600401610ecb906118ec565b60405180910390fd5b50565b3373ffffffffffffffffffffffffffffffffffffffff16816000015173ffffffffffffffffffffffffffffffffffffffff1614610f49576040517f08c379a0000000000000000000000000000000000000000000000000000000008152600401610f409061197e565b60405180910390fd5b50565b6040518060600160405280600073ffffffffffffffffffffffffffffffffffffffff16815260200160008152602001600081525090565b6040518060c0016040528060008152602001600073ffffffffffffffffffffffffffffffffffffffff16815260200160008152602001600081526020016000815260200160006003811115610fdb57610fda6111ad565b5b81525090565b6000819050919050565b610ff481610fe1565b82525050565b600060208201905061100f6000830184610feb565b92915050565b600073ffffffffffffffffffffffffffffffffffffffff82169050919050565b600061104082611015565b9050919050565b61105081611035565b82525050565b600060208201905061106b6000830184611047565b92915050565b600080fd5b61107f81610fe1565b811461108a57600080fd5b50565b60008135905061109c81611076565b92915050565b6000602082840312156110b8576110b7611071565b5b60006110c68482850161108d565b91505092915050565b600080604083850312156110e6576110e5611071565b5b60006110f48582860161108d565b92505060206111058582860161108d565b9150509250929050565b6000806000806080858703121561112957611128611071565b5b60006111378782880161108d565b94505060206111488782880161108d565b93505060406111598782880161108d565b925050606061116a8782880161108d565b91505092959194509250565b600060608201905061118b6000830186611047565b6111986020830185610feb565b6111a56040830184610feb565b949350505050565b7f4e487b7100000000000000000000000000000000000000000000000000000000600052602160045260246000fd5b600481106111ed576111ec6111ad565b5b50565b60008190506111fe826111dc565b919050565b600061120e826111f0565b9050919050565b61121e81611203565b82525050565b600060c0820190506112396000830189610feb565b6112466020830188611047565b6112536040830187610feb565b6112606060830186610feb565b61126d6080830185610feb565b61127a60a0830184611215565b979650505050505050565b600082825260208201905092915050565b7f52656e74616c4d616e616765723a2072656e74616c206973206e6f742061636360008201527f6570746564000000000000000000000000000000000000000000000000000000602082015250565b60006112f2602583611285565b91506112fd82611296565b604082019050919050565b60006020820190508181036000830152611321816112e5565b9050919050565b600060408201905061133d6000830185611047565b61134a6020830184610feb565b9392505050565b60008115159050919050565b61136681611351565b811461137157600080fd5b50565b6000815190506113838161135d565b92915050565b60006020828403121561139f5761139e611071565b5b60006113ad84828501611374565b91505092915050565b600082825260208201905092915050565b50565b60006113d76000836113b6565b91506113e2826113c7565b600082019050919050565b600060a0820190506114026000830187611047565b61140f6020830186611047565b61141c6040830185610feb565b6114296060830184610feb565b818103608083015261143a816113ca565b905095945050505050565b7f4e487b7100000000000000000000000000000000000000000000000000000000600052601160045260246000fd5b600061147f82610fe1565b91507fffffffffffffffffffffffffffffffffffffffffffffffffffffffffffffffff8214156114b2576114b1611445565b5b600182019050919050565b60006080820190506114d26000830187610feb565b6114df6020830186611047565b6114ec6040830185610feb565b6114f96060830184610feb565b95945050505050565b7f52656e74616c4d616e616765723a20726571756573742077697468207468697360008201527f20696420646f6573206e6f742065786973740000000000000000000000000000602082015250565b600061155e603283611285565b915061156982611502565b604082019050919050565b6000602082019050818103600083015261158d81611551565b9050919050565b6000815190506115a381611076565b92915050565b6000602082840312156115bf576115be611071565b5b60006115cd84828501611594565b91505092915050565b7f52656e74616c4d616e616765723a20626f6f6b73206e6f74206164646564207460008201527f6f20636174616c6f677565000000000000000000000000000000000000000000602082015250565b6000611632602b83611285565b915061163d826115d6565b604082019050919050565b6000602082019050818103600083015261166181611625565b9050919050565b600060c08201905061167d6000830189610feb565b61168a6020830188610feb565b6116976040830187611047565b6116a46060830186610feb565b6116b16080830185610feb565b6116be60a0830184610feb565b979650505050505050565b7f52656e74616c4d616e616765723a2072656e74616c206973206e6f74206f666660008201527f6572656400000000000000000000000000000000000000000000000000000000602082015250565b6000611725602483611285565b9150611730826116c9565b604082019050919050565b6000602082019050818103600083015261175481611718565b9050919050565b600061176682610fe1565b915061177183610fe1565b9250827fffffffffffffffffffffffffffffffffffffffffffffffffffffffffffffffff038211156117a6576117a5611445565b5b828201905092915050565b60006060820190506117c66000830186611047565b6117d36020830185611047565b6117e06040830184610feb565b949350505050565b7f52656e74616c4d616e616765723a2072656e74616c20646f6573206e6f74206560008201527f7869737400000000000000000000000000000000000000000000000000000000602082015250565b6000611844602483611285565b915061184f826117e8565b604082019050919050565b6000602082019050818103600083015261187381611837565b9050919050565b7f52656e74616c4d616e616765723a206d75737420626520746865206c6f616e6560008201527f7200000000000000000000000000000000000000000000000000000000000000602082015250565b60006118d6602183611285565b91506118e18261187a565b604082019050919050565b60006020820190508181036000830152611905816118c9565b9050919050565b7f52656e74616c4d616e616765723a206d757374206265207468652072656e746560008201527f7200000000000000000000000000000000000000000000000000000000000000602082015250565b6000611968602183611285565b91506119738261190c565b604082019050919050565b600060208201905081810360008301526119978161195b565b905091905056fea26469706673582212206b7e71f1c65891c442176ebc7088d16b765cad45735f05429b19a3e9bcbef63b64736f6c63430008090033",
  "linkReferences": {},
  "deployedLinkReferences": {}
}